:020000040800F2
:1000000050080020890100081F1300085912000839
:100010001D1300089D040008F518000800000000EA
:100020000000000000000000000000002916000889
:100030000F05000800000000BB1500087516000839
:10004000A3010008A3010008A3010008A301000800
:10005000A3010008A3010008A3010008A3010008F0
:10006000A3010008A3010008A3010008A3010008E0
:10007000A3010008A3010008A3010008A3010008D0
:10008000A3010008A3010008A3010008A3010008C0
:10009000A3010008A3010008A3010008110500083E
:1000A000A3010008A3010008A3010008A3010008A0
:1000B000A3010008A3010008A3010008A301000890
:1000C000A3010008A3010008A3010008A301000880
:1000D000A3010008A3010008E9180008A301000813
:1000E000A3010008A3010008A301000800F002F822
:1000F00000F03AF80AA090E8000C82448344AAF188
:100100000107DA4501D100F02FF8AFF2090EBAE885
:100110000F0013F0010F18BFFB1A43F0010318473B
:10012000A4180000C4180000103A24BF78C878C191
:10013000FAD8520724BF30C830C144BF04680C60ED
:10014000704700000023002400250026103A28BF35
:1001500078C1FBD8520728BF30C148BF0B60704739
:100160001FB51FBD10B510BD00F096F81146FFF782
:10017000F7FF01F00FFC00F0B4F803B4FFF7F2FF53
:1001800003BC00F0BBF8000009488047094800475D
:10019000FEE7FEE7FEE7FEE7FEE7FEE7FEE7FEE737
:1001A000FEE7FEE704480549054A064B7047000094
:1001B000D5160008ED00000850020020500800206D
:1001C000500400205004002030B505460B462A4656
:1001D00013F8014B12F8010B08B1A042F8D01CB182
:1001E000002802D06D1CF1E7284630BD40EA01032B
:1001F00010B59B070FD1042A0DD310C808C9121FD0
:100200009C42F8D020BA19BA884201D9012010BD09
:100210004FF0FF3010BD1AB1D30703D0521C07E0D6
:10022000002010BD10F8013B11F8014B1B1B07D13A
:1002300010F8013B11F8014B1B1B01D1921EF1D1AB
:10024000184610BD4FF0000200B51346944696467E
:10025000203922BFA0E80C50A0E80C50B1F12001D9
:10026000BFF4F7AF090728BFA0E80C5048BF0CC087
:100270005DF804EB890028BF40F8042B08BF7047E5
:1002800048BF20F8022B11F0804F18BF00F8012B57
:100290007047704770477047754600F02BF8AE46C0
:1002A00005006946534620F00700854618B020B582
:1002B000FFF778FFBDE820404FF000064FF0000741
:1002C0004FF000084FF0000B21F00701AC46ACE8FE
:1002D000C009ACE8C009ACE8C009ACE8C0098D466B
:1002E000704710B50446AFF300802046BDE81040CB
:1002F000FFF743BF00487047EC0100200149182078
:10030000ABBEFEE72600020070470000F8B50024EF
:100310004D4E25464FF47A77052D74D2DFE805F06F
:10032000032C4B668200641CA4B200230722012127
:10033000022000F0F5FF01F076F8C0BB012001F0CB
:1003400056F8A0BB02231A460121184600F0E8FF28
:100350006B46F0220021012001F0CDF828B138468B
:1003600000F060F9002401254DE001220023114630
:10037000032000F0D5FFF8BD641CA4B200230722BF
:100380000121022000F0CCFF01F04DF878B90220E5
:1003900001F02DF858B902231A460121184600F041
:1003A000BFFF384600F03EF9002402252BE0FFE7AE
:1003B00001F053F927E0002306220F21012000F06D
:1003C000AFFF01F068F805000ED0012203231146AB
:1003D000022000F0A5FF384600F024F9284601F07D
:1003E0003CF9002425460EE003250CE001F06BF8F3
:1003F000E8B9002306220F21032000F091FF3846C0
:1004000000F010F90425384600F00CF9042C83D1D3
:1004100003231A460121184600F082FF384600F0F7
:1004200001F9F8BD3178022001F0A0F808B10025EB
:10043000BEE7032305220121022000F071FF30787E
:10044000401C3070EAE700001400002000B5EF20E7
:1004500000F01AF8012000F017F80A4B1868000E97
:1004600000F012F81868C0F3074000F00DF8188883
:10047000C0F3072000F008F818785DF804EB00F0EE
:1004800003B800001000002003490A685206FCD59A
:100490000149091D0860704700440040FEE703233E
:1004A00010B51A460121184600F03AFF00F087FF08
:1004B00018B1BDE8104001F0D0B803230522012196
:1004C000BDE81040022000F02BBF08B50020ADF8B9
:1004D0000000034607220121022000F021FF00F066
:1004E000BEFF50B9012000F082FF30B96B46F02208
:1004F0000021012000F0FFFF10B101F0AEF808BDAF
:10050000002302220121032000F00AFF08BD7047EA
:10051000202000F09BB872B6FEE710B501F0FCF9A0
:1005200004280FD2DFE800F00E02060ABDE81040F2
:10053000FFF7ECBEBDE81040FFF7C7BFBDE81040B5
:10054000FFF7ADBF10BD10B590F8211000220229B1
:1005500005D00421816380F82020012010BD0168AE
:100560000B6823F00E030B6001680B6823F0010396
:100570000B6090F84030012404FA03F1C36B59601A
:1005800080F8214080F82020104610BD10B590F86A
:1005900021100024022903D00421816301243DE0BD
:1005A00001680A6822F00E020A6001680A6822F0F7
:1005B00001020A601A4A0168914201D1012121E039
:1005C000174A1432914201D110211BE0144A2832FB
:1005D000914201D1891515E0114A3C32914201D175
:1005E00089140FE00E4A5032914202D14FF480310B
:1005F00008E00B4A6432914202D14FF4801101E0CD
:100600004FF08071064A083A5160012180F82110AC
:10061000002180F82010416B01B18847204610BDB1
:100620000800024070B5044600F008F90546601C59
:1006300002D004480078044400F000F9401BA042B6
:10064000FAD370BD00000020FFF767BF044910B562
:100650000A68024202D00860FFF7F6FF10BD0000F2
:10066000140401402DE9F84FDFF8A491002409F1AA
:10067000040A0AF1040B23464FF00F080BF1040E95
:10068000BEE00127A7403A40BA4272D1DFF884C1E8
:100690004D68A5EB0C0665452BD00DDC032D34D041
:1006A00005DC35B3012D19D0022D2FD11BE0112D02
:1006B00016D0122D2AD119E0B6F5881F19D006DC04
:1006C000B6F5803F15D0B6F5801F1FD111E0B6F505
:1006D000001F0ED0B6F5041F18D10AE0CB6815E054
:1006E000CB681B1D12E0CB6808330FE0CB680C33DE
:1006F0000CE08B682BB1012B4FF0080303D047614E
:1007000004E0042302E0076100E00023FF2A01D88F
:10071000064601E000F104064FEA840501D9A5F17F
:100720002005376808FA05FC27EA0C0703FA05F5E7
:1007300047EA050737604D68ED0060D5364DAE6974
:1007400046F00106AE61AD6924F0030605F001052F
:100750000095324D7719BE68A5072D0F08FA05FCE4
:1007600026EA0C06DFF8B8C0604503D14FF0000C54
:1007700017E044E0DFF8ACC0604502D14FF0010C57
:100780000FE0DFF8A4C0604502D14FF0020C08E092
:10079000DFF898C0604502D14FF0030C01E04FF044
:1007A000040C0CFA05FC4CEA060CC7F808C04D68AE
:1007B000D9F80060ED034D4601D5164300E096439D
:1007C0002E604D68DAF80060AD03554601D516433A
:1007D00000E096432E604D68DBF80060ED025D4658
:1007E00001D5164300E096432E604D68DEF80060A8
:1007F000AD02754601D5164300E096432E60641C99
:100800000A6832FA04F57FF43CAFBDE8F88F0000C7
:1008100000040140000011100010024000000140DF
:1008200000080140000C014000100140001401408C
:100830008068084000D001207047000001488068AF
:1008400070470000000000200248816802781144CF
:100850008160704700000020074810B5016841F032
:1008600010010160032000F075F80F2000F006F879
:1008700000F024F8002010BD0020024070B50D4D9E
:1008800004464FF47A712878B1FBF0F00A49096800
:10089000B1FBF0F000F0EEFA48B9102C07D20022BC
:1008A0002146501E00F036F800206C6070BD01201B
:1008B00070BD0000000000200C0000200C4808B5AE
:1008C000816941F001018161816901F001010091BB
:1008D000C16941F08051C161C069064900F0805092
:1008E0000090486820F0E06040F00070486008BD6B
:1008F0000010024000000140002809DB00F01F0248
:10090000012191404009800000F1E020C0F8001171
:1009100070470000F0B40E4B1B68C3F30223C3F111
:100920000704042C00D904241D1D072D01D2002327
:1009300000E0DB1E012606FA04F56D1E0D409D4009
:100940009E40761E164045EA0601F0BC00F0D3BF7B
:100950000CED00E0064A00F0070110684FF6FF03B7
:10096000184040EA01200349084310607047000026
:100970000CED00E00000FA052DE9F0470D460400FB
:1009800067D0DFF81881D8F8000000F00700A8420F
:100990000CD2D8F8001021F007012943C8F8001044
:1009A000D8F8000000F00700A84252D120683C4E61
:1009B000810712D5400703D5706840F4E06070608D
:1009C0002078000703D5706840F46050706070684C
:1009D000A16820F0F000084370602078C00727D09D
:1009E0006068012810D03168022810D089070029DA
:1009F0002FDA716821F0030101437160FFF71EFFD8
:100A0000074641F288390CE031688903EFE7890134
:100A1000EDE7FFF713FFC11B494502D90320BDE8ED
:100A2000F0877068616800F00C00B0EB810FF0D1C6
:100A3000D8F80010404601F00701A9420BD901681F
:100A400021F0070129430160006800F00700A84277
:100A500001D00120E3E72078400705D57068E16800
:100A600020F4E060084370602078000706D57068C5
:100A7000216920F4605040EAC100706000F038F84D
:100A80007168084AC1F30311515CC8400649086007
:100A900006480068FFF7F2FE0020C0E70020024091
:100AA00000100240AA1900080C00002004000020D9
:100AB0000448054900684968044AC1F30221515CB1
:100AC000C84070470C00002000100240BA1900080E
:100AD0000448054900684968044AC1F3C221515CD1
:100AE000C84070470C00002000100240BA190008EE
:100AF00012A085B00FC88DE80F0014A0144B006839
:100B000004905968134801F00C02042A10D0082AF6
:100B10000ED1C1F38342C9031DF802000AD55968FA
:100B200004AAC1F34041515C0A4A5043B0FBF1F0C2
:100B300005B0704708494843FAE70000020304057E
:100B4000060708090A0B0C0D0E0F10100102000019
:100B50000010024000127A0000093D002DE9F84F14
:100B600004006FD02078BE4DC00747D06868C0F33E
:100B70008100012807D06868C0F38100022809D1EC
:100B80006868C00306D52868800337D560680028E8
:100B9000E7D033E06068B0F5803F0BD010B1B0F51E
:100BA000A02F11D0286820F480302860286820F415
:100BB000802002E0286840F480302860606888B1B6
:100BC000FFF73CFE064609E0286840F480202860D4
:100BD000F0E7FFF733FE801B642873D82868800392
:100BE000F7D50BE0FFF72AFE064604E0FFF726FEE6
:100BF000801B6428F1D828688003F7D42078DFF8B8
:100C0000648280074FF0010A4FF0000939D5686807
:100C100010F00C0F07D06868C0F38100022809D1DA
:100C20006868C00306D42868800714D520690128A5
:100C300008D110E02069B0B1C8F800A0FFF7FEFDB0
:100C4000064605E007E1FFF7F9FD801B0228C4D83E
:100C500028688007F7D52868616920F0F80040EA25
:100C6000C10028600DE0C8F80090FFF7E7FD0646D8
:100C700004E0FFF7E3FD801B022823D828688007E3
:100C8000F7D4207800072CD57748A169D9B1C0F8EE
:100C900000A0FFF7D3FD064604E0FFF7CFFD801B61
:100CA00002280FD8686A8007F7D570484FF4FA51C8
:100CB0000068B0FBF1F0009000BF0098411E009169
:100CC000FAD20EE07CE0C0F80090FFF7B7FD0646D0
:100CD00004E0FFF7B3FD801B022871D8686A800723
:100CE000F7D4207840075BD5E8690027C00008D416
:100CF000E86940F08050E861E869012700F0805021
:100D000000905B480168C90511D40168834641F42D
:100D100080710160FFF792FD064604E0FFF78EFD4B
:100D2000801B64284CD8DBF80000C005F6D5E068CD
:100D300001280AD008B1052813D0286A20F0010044
:100D40002862286A20F0040002E0286A40F00100CE
:100D50002862E06841F2883B88B1FFF76FFD0646E4
:100D600009E0286A40F004002862EEE7FFF766FD1C
:100D7000811B59455BD8286A8007F7D50BE0FFF740
:100D80005DFD064604E0FFF759FD811B59454ED82D
:100D9000286A8007F7D41FB1E86920F08050E86125
:100DA000E069A8B36968C1F38101022946D002282D
:100DB000484606D0C8F86000FFF740FD044639E019
:100DC00035E04746C8F86000FFF738FD064604E006
:100DD000FFF734FD801B022829D828688001F7D44A
:100DE000206AB0F5803F05D16868A16820F4003022
:100DF00008436860D4E908010843696821F4741164
:100E000008436860C7F860A0FFF718FD044605E0D6
:100E100023E0FFF713FD001B022808D82868800193
:100E2000F7D51AE0FFF70AFD001B022802D90320BC
:100E3000BDE8F88F28688001F4D40EE00128F7D0CF
:100E40006868226A00F48031914204D1616A00F43A
:100E50007010884201D00120EAE70020E8E7000096
:100E60000010024000004242800442420C00002078
:100E70000070004010B5401EB0F1807F01D301200A
:100E800010BD4FF0E02460610F21601700F033FDCA
:100E90000020A06107202061002010BD704770472E
:100EA000F8B5026804461068D168536910F00F0F56
:100EB0004FF0000553D003F0010601F4907737435B
:100EC0005FD0C20705D0CA0503D5226C42F00102EB
:100ED0002264420705D5DA0703D0226C42F00202F1
:100EE0002264820705D5DA0703D0226C42F004029F
:100EF0002264020707D501F02002324303D0226C9E
:100F000042F008022264226C002A34D0800604D504
:100F1000880602D5204600F0FEFB20684069216C5F
:100F2000C0F38010090700D430B3204600F0DBFB8B
:100F30002068416949061BD5416921F040014161A2
:100F4000A06BA8B158494163A06BFFF71FFB0028B5
:100F500011D0A06B416B01B0BDE8F040084783069B
:100F60000FD58B060DD52046BDE8F84000F0D3BB69
:100F70002046FFF794FFF8BD2046FFF790FF256459
:100F8000F8BD266B2023012E52D1C60650D5CE06C1
:100F90004ED5106850680090506940062AD5A16B64
:100FA000086840680004000CEAD0A68D8642E7D9A4
:100FB000E0858869202818D0D06820F48070D0603F
:100FC0002068416921F0010141612068416921F0F7
:100FD0004001416184F83E3025632068C16821F0FA
:100FE0001001C160A06BFFF7AEFAA08DE18D401A31
:100FF00081B219E0A08DE18D401A81B2E08D002808
:10100000BED00029BCD0D06820F49070D060206899
:10101000426922F00102426184F83E302563206873
:10102000C26822F01002C2602046FFF737FFF8BD09
:1010300005062BD50D0629D594F83D002128F6D1BB
:10104000A068B0F5805F01D12069B0B1206A411C71
:101050002162216800784860E08C401E0004000C8A
:10106000E084E4D12068C16821F08001C16020687B
:10107000C16841F04001C160F8BD206A0088C0F33A
:1010800008005060206A801C2062E5E74006F3D526
:101090004806F1D5D168204621F04001D16084F89E
:1010A0003D3000F0D8F8F8BDD716000870B5040040
:1010B00004D094F83D00002510B106E0012070BD79
:1010C00084F83C50204600F023F8242084F83D00AA
:1010D0002068C16821F40051C160204600F076FB11
:1010E0002068016921F4904101612068416921F083
:1010F0002A0141612068C16841F40051C160256442
:10110000202084F83D0084F83E00002070BD0000DF
:1011100030B585B0002400940194029403940068D3
:10112000184988422BD11848C16941F40031C16186
:10113000C16901F400310491816941F004018161C8
:101140008069124D00F004000490042000900220F9
:1011500001900320039069462846FFF783FA082090
:10116000CDE90004694628460294FFF77BFA002285
:1011700001212620FFF7CEFB2620FFF7BDFB05B09F
:1011800030BD000000440040001002400008014053
:101190002DE9F84F044690F83E00984615460E4655
:1011A000202855D10EB305B394F83C0001284FD048
:1011B000012084F83C004FF00009C4F8409022213F
:1011C00084F83E10C4F83090FFF738FBA5858246BE
:1011D000E585A0684FF48057B84201D1206938B145
:1011E0003546002684F83C9027E00120BDE8F88FC2
:1011F0000025F7E75346002220212046CDF8008045
:1012000000F040FB08B10320F0E725B1A068B84228
:101210001BD038B108E020684068C0F3080026F809
:10122000020B07E0206980B12068406800F07F0071
:1012300005F8010BE08D401EE085E08D0028D9D136
:10124000202084F83E000020D0E720684068EFE7C7
:101250000220CBE770477047FEE7000010B586B06C
:101260001B4800240394816941F020018161816958
:1012700001F020010491816941F0040181618169DB
:1012800001F004010491816941F0080181618069E4
:10129000694600F008000490202000900D4801905D
:1012A000022002900C48FFF7DDF9D020CDE90004C0
:1012B0000120029069460948FFF7D4F90022022173
:1012C0001720FFF727FB1720FFF716FB06B010BD0E
:1012D000001002400000111000080140000C014005
:1012E0000D4810B50B4901604FF461414160002188
:1012F0004FF40052C0E902120C22C0E904128161CD
:10130000C161FFF7D3FE002803D0BDE81040FFF70E
:1013100002B910BD0044004018000020FEE7FEE7BF
:101320002DE9F0411E46174688460546FFF78EF820
:10133000012000F084F9072000F083F93C2000F040
:101340008AF90020FFF7A0F80020FFF79DF8384643
:10135000FFF79AF80020FFF797F805EB08003844EC
:1013600084194434204600F060F9C820FFF75AF988
:10137000FFF76CF8012000F062F9072000F061F936
:101380003C2000F068F92846FFF77EF84046FFF75A
:101390007BF83846FFF778F83046FFF775F82046B7
:1013A00000F043F9C820FFF73DF94FF4FA6000F070
:1013B00005F910B1407ABDE8F081FF20FBE710B5D8
:1013C000FFF744F80120FFF75FF8032000F039F938
:1013D0000D20FFF759F8112000F027F94FF4FA60BB
:1013E00000F0ECF808B1407A10BDFF2010BD10B538
:1013F0000446FFF72BF80120FFF746F8042000F021
:1014000020F90220FFF740F82046FFF73DF8E01DE5
:1014100000F00BF94FF4FA6000F0D0F808B1407A10
:1014200010BDFF2010BD10B540F6C410FFF7FAF84C
:10143000FFF70CF80120FFF727F8032000F001F96F
:101440002920FFF721F82D2000F0EFF84FF4FA6083
:1014500000F0B4F808B1407A10BDFF2010BD10B5FF
:1014600040F6C410FFF7DEF8FEF7F0FF0120FFF7AB
:101470000BF8032000F0E5F80120FFF705F8052040
:1014800000F0D3F84FF4FA6000F098F808B1407A11
:1014900010BDFF2010BD10B5FEF7D8FF0120FEF7EC
:1014A000F3FF032000F0CDF80320FEF7EDFF072047
:1014B00000F0BBF84FF4FA6000F080F808B1407A11
:1014C00010BDFF2010BD10B5FEF7C0FF0120FEF7D4
:1014D000DBFF032000F0B5F80520FEF7D5FF09205B
:1014E00000F0A3F84FF4FA6000F068F808B1407A11
:1014F00010BDFF2010BD2DE9F0411E4614460D46DB
:101500000746FEF7A3FF0120FEF7BEFF082000F00C
:1015100098F80420FEF7B8FF3846FEF7B5FF280A12
:10152000FEF7B2FFE8B2FEF7AFFF200AFEF7ACFF0E
:10153000E0B2FEF7A9FF07EB1520E9B2084400EB83
:101540001420E1B208440D3000F06FF84FF4FA6057
:1015500000F034F830B1417AC27A807A02EB002090
:10156000308000E0FF210846BDE8F08170B50C46F0
:101570000546FEF76BFF0120FEF786FF062000F010
:1015800060F80620FEF780FF2846FEF77DFF200A60
:10159000FEF77AFFE0B2FEF777FF05EB1420E1B229
:1015A00008440D3000F041F84FF4FA6000F006F8FE
:1015B00008B1407A70BDFF2070BD70471CB5EF21A7
:1015C0008DF8001001218DF8011014498308154889
:1015D00009680A0E8DF802200A0C8DF803200A0A09
:1015E0008DF804208DF8051007218DF806100021D4
:1015F0008DF807104FF4C8720949FFF7C9FD07229B
:1016000007496846FEF7F2FD28B969460448FEF727
:10161000DBFD002800D100201CBD000010000020D0
:101620005C00002018000020704700B50346000A47
:10163000FEF72AFFD8B25DF804EBFEF725BFFEF7F0
:1016400023BF00B50346000AFEF71EFFD8B25DF8BF
:1016500004EBFEF719BFFEF717BF10B501210023F9
:1016600030220846FFF75CFEBDE810404FF4FA60F8
:10167000FEF7D8BFFFF7E8B830B58FB0282168462D
:10168000FEF7E0FD14210AA8FEF7DCFD01200104AD
:1016900000248DE8130004904FF4E010CDE9081009
:1016A000022507956846FFF759FA08B172B6FEE7BA
:1016B0000F20CDE90A054FF48060CDE90C400221EE
:1016C0000AA80E94FFF758F9002801D072B6FEE779
:1016D0000FB030BD704710B5406A0021C185C1848C
:1016E000FFF7DDFB10BD0168CA6822F49072CA6082
:1016F00001684A6922F001024A61016B012904D1A3
:101700000168CA6822F01002CA60202180F83E10E9
:1017100000210163704708B590F83E10222901D0DE
:10172000022008BD81684FF48053994201D10269BB
:1017300022B1826A99421BD049B10AE00268816AEB
:101740005268C2F308020A80816A891C08E00169B4
:1017500071B10168496801F07F011170816A491C0B
:101760008162C18D491E0904090CC18503D019E0AD
:1017700001684968F1E70168CA6822F02002CA607E
:101780000168CA6822F48072CA6001684A6922F05E
:1017900001024A61202180F83E10016B012903D02B
:1017A000FFF758FD002008BD002101630168CA68E9
:1017B00022F01002CA6001680A68D20602D50A68DF
:1017C00049680091818DFFF769FBEBE770B504462E
:1017D00000680169E26821F4405111430161A16888
:1017E00020690143606901432068C26841F20C63CB
:1017F0009A430A43C26020684169A26921F440719A
:10180000114341611E492068884202D1FFF760F907
:1018100001E0FFF74DF900EBC00101EB001160683A
:1018200064228000B1FBF0F3B3FBF2F36FF0180613
:101830007343B1FBF0F5B1FBF0F605EB8305322302
:1018400003EB0515B5FBF2F5B6FBF2F605F0F00576
:1018500005EB0615B1FBF0F6B1FBF0F0B0FBF2F0D2
:101860006FF01801484306EB800003EB0010B0FB5B
:10187000F2F0216800F00F002844886070BD00007D
:10188000003801402DE9F0411E46174688460446BF
:10189000069D1CE0681C1AD025B1FEF7CFFF801B07
:1018A000A84214D92068C16821F4D071C1602068B1
:1018B000416921F001014161202084F83D0084F854
:1018C0003E00002084F83C000320BDE8F081206841
:1018D000016838EA010004D00020B842DAD00020C4
:1018E000F3E70120F9E700000148FFF7D9BA00004B
:1018F00018000020FEE70907090E002804DB00F1AC
:10190000E02080F80014704700F00F0000F1E020A4
:1019100080F8141D7047000010B51D4C10212046A2
:10192000FEF786FFE8B140212046FEF781FFC0B1F7
:1019300080212046FEF77CFF98B110212046FEF75B
:1019400077FF01280CD140212046FEF771FF0128C6
:1019500006D180212046FEF76BFF012800D1002030
:1019600010BD10212046FEF763FF60B140212046E4
:10197000FEF75EFF48B180212046FEF759FF0028A0
:10198000EED1032010BD012010BD022010BD0000CB
:10199000000C0140FEF760FFFFF76EFEFFF75EFCF4
:1019A000FFF79EFCFEF7B9FDFCE700000000000019
:1019B00000000102030406070809000000000102FC
:1019C00003040000E41900080000002018000000D3
:1019D00028010008FC190008180000203808000041
:1019E0004401000801000000100000000000000099
:0C19F0000024F400FFFFFFFF00000000D7
:04000005080000ED02
:00000001FF
